{
  "contractName": "DiscountsPromotions",
  "abi": [
    {
      "inputs": [],
      "stateMutability": "nonpayable",
      "type": "constructor"
    },
    {
      "anonymous": false,
      "inputs": [
        {
          "indexed": false,
          "internalType": "uint256",
          "name": "itemId",
          "type": "uint256"
        },
        {
          "indexed": false,
          "internalType": "uint256",
          "name": "discountPercent",
          "type": "uint256"
        },
        {
          "indexed": false,
          "internalType": "uint256",
          "name": "validTill",
          "type": "uint256"
        }
      ],
      "name": "DiscountCreated",
      "type": "event"
    },
    {
      "anonymous": false,
      "inputs": [
        {
          "indexed": false,
          "internalType": "uint256",
          "name": "itemId",
          "type": "uint256"
        }
      ],
      "name": "DiscountRemoved",
      "type": "event"
    },
    {
      "inputs": [
        {
          "internalType": "uint256",
          "name": "",
          "type": "uint256"
        }
      ],
      "name": "itemDiscounts",
      "outputs": [
        {
          "internalType": "uint256",
          "name": "discountPercent",
          "type": "uint256"
        },
        {
          "internalType": "uint256",
          "name": "validTill",
          "type": "uint256"
        },
        {
          "internalType": "bool",
          "name": "isActive",
          "type": "bool"
        },
        {
          "internalType": "enum DiscountsPromotions.PromotionType",
          "name": "Ptype",
          "type": "uint8"
        }
      ],
      "stateMutability": "view",
      "type": "function"
    },
    {
      "inputs": [],
      "name": "owner",
      "outputs": [
        {
          "internalType": "address",
          "name": "",
          "type": "address"
        }
      ],
      "stateMutability": "view",
      "type": "function"
    },
    {
      "inputs": [
        {
          "internalType": "uint256",
          "name": "itemId",
          "type": "uint256"
        },
        {
          "internalType": "uint256",
          "name": "discountPercent",
          "type": "uint256"
        },
        {
          "internalType": "uint256",
          "name": "validTill",
          "type": "uint256"
        },
        {
          "internalType": "enum DiscountsPromotions.PromotionType",
          "name": "pType",
          "type": "uint8"
        }
      ],
      "name": "setDiscount",
      "outputs": [],
      "stateMutability": "nonpayable",
      "type": "function"
    },
    {
      "inputs": [
        {
          "internalType": "uint256",
          "name": "itemId",
          "type": "uint256"
        }
      ],
      "name": "removeDiscount",
      "outputs": [],
      "stateMutability": "nonpayable",
      "type": "function"
    },
    {
      "inputs": [
        {
          "internalType": "uint256",
          "name": "itemId",
          "type": "uint256"
        },
        {
          "internalType": "uint256",
          "name": "price",
          "type": "uint256"
        }
      ],
      "name": "getDiscountedPrice",
      "outputs": [
        {
          "internalType": "uint256",
          "name": "",
          "type": "uint256"
        }
      ],
      "stateMutability": "view",
      "type": "function"
    },
    {
      "inputs": [
        {
          "internalType": "address",
          "name": "newOwner",
          "type": "address"
        }
      ],
      "name": "transferOwnership",
      "outputs": [],
      "stateMutability": "nonpayable",
      "type": "function"
    }
  ],
  "bytecode": "0x608060405234801561001057600080fd5b5033600160006101000a81548173ffffffffffffffffffffffffffffffffffffffff021916908373ffffffffffffffffffffffffffffffffffffffff16021790555061077f806100616000396000f3fe608060405234801561001057600080fd5b50600436106100625760003560e01c806303a67084146100675780631fe44931146100cb578063310be939146100f95780638da5cb5b14610145578063c6bb896714610179578063f2fde38b146101c8575b600080fd5b6100936004803603602081101561007d57600080fd5b810190808035906020019092919050505061020c565b6040518085815260200184815260200183151581526020018260028111156100b757fe5b815260200194505050505060405180910390f35b6100f7600480360360208110156100e157600080fd5b8101908080359060200190929190505050610256565b005b61012f6004803603604081101561010f57600080fd5b810190808035906020019092919080359060200190929190505050610383565b6040518082815260200191505060405180910390f35b61014d61044e565b604051808273ffffffffffffffffffffffffffffffffffffffff16815260200191505060405180910390f35b6101c66004803603608081101561018f57600080fd5b81019080803590602001909291908035906020019092919080359060200190929190803560ff169060200190929190505050610474565b005b61020a600480360360208110156101de57600080fd5b81019080803573ffffffffffffffffffffffffffffffffffffffff169060200190929190505050610608565b005b60006020528060005260406000206000915090508060000154908060010154908060020160009054906101000a900460ff16908060020160019054906101000a900460ff16905084565b600160009054906101000a900473ffffffffffffffffffffffffffffffffffffffff1673ffffffffffffffffffffffffffffffffffffffff163373ffffffffffffffffffffffffffffffffffffffff16146102fc576040517f08c379a00000000000000000000000000000000000000000000000000000000081526004018080602001828103825260228152602001806107286022913960400191505060405180910390fd5b60008082815260200190815260200160002060008082016000905560018201600090556002820160006101000a81549060ff02191690556002820160016101000a81549060ff021916905550507ff456bb8bc043d21147240564bf0f9952a0b4abb189131b9cc6c45ab3ad30bda2816040518082815260200191505060405180910390a150565b600061038d6106f2565b60008085815260200190815260200160002060405180608001604052908160008201548152602001600182015481526020016002820160009054906101000a900460ff161515151581526020016002820160019054906101000a900460ff1660028111156103f757fe5b600281111561040257fe5b8152505090508060400151801561041d575080602001514211155b156104435760006064826000015185028161043457fe5b04905080840392505050610448565b829150505b92915050565b600160009054906101000a900473ffffffffffffffffffffffffffffffffffffffff1681565b600160009054906101000a900473ffffffffffffffffffffffffffffffffffffffff1673ffffffffffffffffffffffffffffffffffffffff163373ffffffffffffffffffffffffffffffffffffffff161461051a576040517f08c379a00000000000000000000000000000000000000000000000000000000081526004018080602001828103825260228152602001806107286022913960400191505060405180910390fd5b604051806080016040528084815260200183815260200160011515815260200182600281111561054657fe5b815250600080868152602001908152602001600020600082015181600001556020820151816001015560408201518160020160006101000a81548160ff02191690831515021790555060608201518160020160016101000a81548160ff021916908360028111156105b357fe5b02179055509050507f3661b7b1ab6fdfd0ec683fa610b0ccff5a5c723501d79816d958f1b7110d0b7384848460405180848152602001838152602001828152602001935050505060405180910390a150505050565b600160009054906101000a900473ffffffffffffffffffffffffffffffffffffffff1673ffffffffffffffffffffffffffffffffffffffff163373ffffffffffffffffffffffffffffffffffffffff16146106ae576040517f08c379a00000000000000000000000000000000000000000000000000000000081526004018080602001828103825260228152602001806107286022913960400191505060405180910390fd5b80600160006101000a81548173ffffffffffffffffffffffffffffffffffffffff021916908373ffffffffffffffffffffffffffffffffffffffff16021790555050565b604051806080016040528060008152602001600081526020016000151581526020016000600281111561072157fe5b8152509056fe4f6e6c79206f776e65722063616e20706572666f726d207468697320616374696f6ea2646970667358221220c00ee94f7a0a8be63f9799d65e8cd6a19d881803ad393b2d12f54c6a31cd9ea264736f6c63430007000033",
  "immutableReferences": {},
  "source": "// SPDX-License-Identifier: GPL-3.0\r\n\r\npragma solidity >=0.7.0 <0.9.0;\r\n\r\ncontract DiscountsPromotions {\r\n    enum PromotionType { Discount, BuyOneGetOne, SpecialEvent }\r\n\r\n    struct Discount {\r\n        uint discountPercent;\r\n        uint validTill; // timestamp for discount validity\r\n        bool isActive; //validity\r\n        PromotionType Ptype;\r\n    }\r\n\r\n    // Mapping of item IDs to their respective discounts\r\n    mapping(uint => Discount) public itemDiscounts;\r\n    \r\n    address public owner;\r\n\r\n    event DiscountCreated(uint itemId, uint discountPercent, uint validTill);\r\n    event DiscountRemoved(uint itemId);\r\n\r\n    modifier onlyOwner() {\r\n        require(msg.sender == owner, \"Only owner can perform this action\");\r\n        _;\r\n    }\r\n\r\n    constructor() {\r\n        owner = msg.sender;\r\n    }\r\n\r\n    // Create or update a discount for an item\r\n    // only owner can offer discount\r\n   function setDiscount(uint itemId, uint discountPercent, uint validTill, PromotionType pType) external onlyOwner {\r\n    itemDiscounts[itemId] = Discount({\r\n        discountPercent: discountPercent,\r\n        validTill: validTill,\r\n        isActive: true,\r\n        Ptype: pType \r\n    });\r\n    emit DiscountCreated(itemId, discountPercent, validTill);\r\n}\r\n\r\n    // Remove a discount from an item\r\n    // only owner can remove discount\r\n    function removeDiscount(uint itemId) external onlyOwner {\r\n        delete itemDiscounts[itemId];\r\n        emit DiscountRemoved(itemId);\r\n    }\r\n\r\n    // Check if an item is eligible for a discount and calculate the discounted price\r\n    function getDiscountedPrice(uint itemId, uint price) public view returns (uint) {\r\n        Discount memory discount = itemDiscounts[itemId];\r\n        if (discount.isActive && block.timestamp <= discount.validTill) {\r\n            uint discountAmount = (price * discount.discountPercent) / 100;\r\n            return price - discountAmount;\r\n        }\r\n        return price;\r\n    }\r\n\r\n    // Update owner (cafe) address\r\n    function transferOwnership(address newOwner) external onlyOwner {\r\n        owner = newOwner;\r\n    }\r\n}\r\n",
  "sourcePath": "C:\\Users\\mibra\\PROJ2\\contracts\\PromotionAndDiscount.sol",
  "compiler": {
    "name": "solc",
    "version": "0.7.0+commit.9e61f92b.Emscripten.clang"
  },
  "schemaVersion": "3.4.16",
  "updatedAt": "2024-01-06T18:54:50.775Z",
  "devdoc": {
    "kind": "dev",
    "methods": {},
    "version": 1
  },
  "userdoc": {
    "kind": "user",
    "methods": {},
    "version": 1
  }
}