{
  "contractName": "menuManagement",
  "abi": [
    {
      "inputs": [],
      "stateMutability": "nonpayable",
      "type": "constructor"
    },
    {
      "anonymous": false,
      "inputs": [
        {
          "indexed": false,
          "internalType": "uint256",
          "name": "itemId",
          "type": "uint256"
        },
        {
          "indexed": false,
          "internalType": "string",
          "name": "name",
          "type": "string"
        },
        {
          "indexed": false,
          "internalType": "uint256",
          "name": "price",
          "type": "uint256"
        }
      ],
      "name": "itemAdded",
      "type": "event"
    },
    {
      "anonymous": false,
      "inputs": [
        {
          "indexed": false,
          "internalType": "uint256",
          "name": "itemId",
          "type": "uint256"
        }
      ],
      "name": "itemRemoved",
      "type": "event"
    },
    {
      "anonymous": false,
      "inputs": [
        {
          "indexed": false,
          "internalType": "uint256",
          "name": "itemId",
          "type": "uint256"
        },
        {
          "indexed": false,
          "internalType": "string",
          "name": "name",
          "type": "string"
        },
        {
          "indexed": false,
          "internalType": "uint256",
          "name": "price",
          "type": "uint256"
        },
        {
          "indexed": false,
          "internalType": "bool",
          "name": "isAvailable",
          "type": "bool"
        }
      ],
      "name": "itemUpdated",
      "type": "event"
    },
    {
      "inputs": [],
      "name": "Owner",
      "outputs": [
        {
          "internalType": "address",
          "name": "",
          "type": "address"
        }
      ],
      "stateMutability": "view",
      "type": "function"
    },
    {
      "inputs": [
        {
          "internalType": "uint256",
          "name": "",
          "type": "uint256"
        }
      ],
      "name": "menuItems",
      "outputs": [
        {
          "internalType": "uint256",
          "name": "id",
          "type": "uint256"
        },
        {
          "internalType": "string",
          "name": "name",
          "type": "string"
        },
        {
          "internalType": "uint256",
          "name": "price",
          "type": "uint256"
        },
        {
          "internalType": "bool",
          "name": "isAvailable",
          "type": "bool"
        }
      ],
      "stateMutability": "view",
      "type": "function"
    },
    {
      "inputs": [],
      "name": "nextItemId",
      "outputs": [
        {
          "internalType": "uint256",
          "name": "",
          "type": "uint256"
        }
      ],
      "stateMutability": "view",
      "type": "function"
    },
    {
      "inputs": [
        {
          "internalType": "string",
          "name": "name",
          "type": "string"
        },
        {
          "internalType": "uint256",
          "name": "price",
          "type": "uint256"
        }
      ],
      "name": "addItem",
      "outputs": [],
      "stateMutability": "nonpayable",
      "type": "function"
    },
    {
      "inputs": [
        {
          "internalType": "uint256",
          "name": "itemId",
          "type": "uint256"
        },
        {
          "internalType": "string",
          "name": "name",
          "type": "string"
        },
        {
          "internalType": "uint256",
          "name": "price",
          "type": "uint256"
        },
        {
          "internalType": "bool",
          "name": "isAvailable",
          "type": "bool"
        }
      ],
      "name": "updateItem",
      "outputs": [],
      "stateMutability": "nonpayable",
      "type": "function"
    },
    {
      "inputs": [
        {
          "internalType": "uint256",
          "name": "itemId",
          "type": "uint256"
        }
      ],
      "name": "removeItem",
      "outputs": [],
      "stateMutability": "nonpayable",
      "type": "function"
    },
    {
      "inputs": [
        {
          "internalType": "uint256",
          "name": "itemId",
          "type": "uint256"
        }
      ],
      "name": "getItem",
      "outputs": [
        {
          "components": [
            {
              "internalType": "uint256",
              "name": "id",
              "type": "uint256"
            },
            {
              "internalType": "string",
              "name": "name",
              "type": "string"
            },
            {
              "internalType": "uint256",
              "name": "price",
              "type": "uint256"
            },
            {
              "internalType": "bool",
              "name": "isAvailable",
              "type": "bool"
            }
          ],
          "internalType": "struct menuManagement.MenuItem",
          "name": "",
          "type": "tuple"
        }
      ],
      "stateMutability": "view",
      "type": "function"
    },
    {
      "inputs": [
        {
          "internalType": "address",
          "name": "newOwner",
          "type": "address"
        }
      ],
      "name": "transferOwnership",
      "outputs": [],
      "stateMutability": "nonpayable",
      "type": "function"
    }
  ],
  "bytecode": "0x608060405234801561001057600080fd5b5033600260006101000a81548173ffffffffffffffffffffffffffffffffffffffff021916908373ffffffffffffffffffffffffffffffffffffffff1602179055506113bf806100616000396000f3fe608060405234801561001057600080fd5b50600436106100885760003560e01c8063713291711161005b578063713291711461012a578063b4a99a4e14610146578063b72753d514610164578063f2fde38b1461018057610088565b80632a5a8c631461008d5780633129e773146100c057806362d6bbdf146100f05780636a8689741461010c575b600080fd5b6100a760048036038101906100a29190610cb7565b61019c565b6040516100b794939291906111d7565b60405180910390f35b6100da60048036038101906100d59190610cb7565b610271565b6040516100e7919061115c565b60405180910390f35b61010a60048036038101906101059190610c63565b6103b2565b005b6101146105aa565b604051610121919061117e565b60405180910390f35b610144600480360381019061013f9190610cb7565b6105b0565b005b61014e610707565b60405161015b9190611061565b60405180910390f35b61017e60048036038101906101799190610ce0565b61072d565b005b61019a60048036038101906101959190610c3a565b610954565b005b6000602052806000526040600020600091509050806000015490806001018054600181600116156101000203166002900480601f01602080910402602001604051908101604052809291908181526020018280546001816001161561010002031660029004801561024e5780601f106102235761010080835404028352916020019161024e565b820191906000526020600020905b81548152906001019060200180831161023157829003601f168201915b5050505050908060020154908060030160009054906101000a900460ff16905084565b610279610a98565b60015482106102bd576040517f08c379a00000000000000000000000000000000000000000000000000000000081526004016102b4906110bc565b60405180910390fd5b60008083815260200190815260200160002060405180608001604052908160008201548152602001600182018054600181600116156101000203166002900480601f01602080910402602001604051908101604052809291908181526020018280546001816001161561010002031660029004801561037d5780601f106103525761010080835404028352916020019161037d565b820191906000526020600020905b81548152906001019060200180831161036057829003601f168201915b50505050508152602001600282015481526020016003820160009054906101000a900460ff1615151515815250509050919050565b600260009054906101000a900473ffffffffffffffffffffffffffffffffffffffff1673ffffffffffffffffffffffffffffffffffffffff163373ffffffffffffffffffffffffffffffffffffffff1614610442576040517f08c379a00000000000000000000000000000000000000000000000000000000081526004016104399061107c565b60405180910390fd5b6000825111610486576040517f08c379a000000000000000000000000000000000000000000000000000000000815260040161047d9061109c565b60405180910390fd5b600081116104c9576040517f08c379a00000000000000000000000000000000000000000000000000000000081526004016104c09061113c565b60405180910390fd5b60405180608001604052806001548152602001838152602001828152602001600115158152506000806001548152602001908152602001600020600082015181600001556020820151816001019080519060200190610529929190610ac2565b506040820151816002015560608201518160030160006101000a81548160ff0219169083151502179055509050506001600081548092919060010191905055507f0e2f0d83e4f086ef35a69732e6814dec01bb8b40e4438daf27883a005ac4d24d600154838360405161059e93929190611199565b60405180910390a15050565b60015481565b600260009054906101000a900473ffffffffffffffffffffffffffffffffffffffff1673ffffffffffffffffffffffffffffffffffffffff163373ffffffffffffffffffffffffffffffffffffffff1614610640576040517f08c379a00000000000000000000000000000000000000000000000000000000081526004016106379061107c565b60405180910390fd5b6001548110610684576040517f08c379a000000000000000000000000000000000000000000000000000000000815260040161067b9061111c565b60405180910390fd5b6000808281526020019081526020016000206000808201600090556001820160006106af9190610b42565b60028201600090556003820160006101000a81549060ff021916905550507f3e641a244df1db6c6204c85085034e131cceead8265c4576628071a63172cfa3816040516106fc919061117e565b60405180910390a150565b600260009054906101000a900473ffffffffffffffffffffffffffffffffffffffff1681565b600260009054906101000a900473ffffffffffffffffffffffffffffffffffffffff1673ffffffffffffffffffffffffffffffffffffffff163373ffffffffffffffffffffffffffffffffffffffff16146107bd576040517f08c379a00000000000000000000000000000000000000000000000000000000081526004016107b49061107c565b60405180910390fd5b6000835111610801576040517f08c379a00000000000000000000000000000000000000000000000000000000081526004016107f89061109c565b60405180910390fd5b60008211610844576040517f08c379a000000000000000000000000000000000000000000000000000000000815260040161083b9061113c565b60405180910390fd5b6001548410610888576040517f08c379a000000000000000000000000000000000000000000000000000000000815260040161087f906110dc565b60405180910390fd5b60405180608001604052808581526020018481526020018381526020018215158152506000808681526020019081526020016000206000820151816000015560208201518160010190805190602001906108e3929190610ac2565b506040820151816002015560608201518160030160006101000a81548160ff0219169083151502179055509050507f6b00e7ef1379f9009a9023eb6262e14d898f9619dce8c48edcc650fc5a8dd3e78484848460405161094694939291906111d7565b60405180910390a150505050565b600260009054906101000a900473ffffffffffffffffffffffffffffffffffffffff1673ffffffffffffffffffffffffffffffffffffffff163373ffffffffffffffffffffffffffffffffffffffff16146109e4576040517f08c379a00000000000000000000000000000000000000000000000000000000081526004016109db9061107c565b60405180910390fd5b600073ffffffffffffffffffffffffffffffffffffffff168173ffffffffffffffffffffffffffffffffffffffff161415610a54576040517f08c379a0000000000000000000000000000000000000000000000000000000008152600401610a4b906110fc565b60405180910390fd5b80600260006101000a81548173ffffffffffffffffffffffffffffffffffffffff021916908373ffffffffffffffffffffffffffffffffffffffff16021790555050565b60405180608001604052806000815260200160608152602001600081526020016000151581525090565b828054600181600116156101000203166002900490600052602060002090601f016020900481019282601f10610b0357805160ff1916838001178555610b31565b82800160010185558215610b31579182015b82811115610b30578251825591602001919060010190610b15565b5b509050610b3e9190610b8a565b5090565b50805460018160011615610100020316600290046000825580601f10610b685750610b87565b601f016020900490600052602060002090810190610b869190610b8a565b5b50565b5b80821115610ba3576000816000905550600101610b8b565b5090565b600081359050610bb681611344565b92915050565b600081359050610bcb8161135b565b92915050565b600082601f830112610be257600080fd5b8135610bf5610bf082611250565b611223565b91508082526020830160208301858383011115610c1157600080fd5b610c1c8382846112f1565b50505092915050565b600081359050610c3481611372565b92915050565b600060208284031215610c4c57600080fd5b6000610c5a84828501610ba7565b91505092915050565b60008060408385031215610c7657600080fd5b600083013567ffffffffffffffff811115610c9057600080fd5b610c9c85828601610bd1565b9250506020610cad85828601610c25565b9150509250929050565b600060208284031215610cc957600080fd5b6000610cd784828501610c25565b91505092915050565b60008060008060808587031215610cf657600080fd5b6000610d0487828801610c25565b945050602085013567ffffffffffffffff811115610d2157600080fd5b610d2d87828801610bd1565b9350506040610d3e87828801610c25565b9250506060610d4f87828801610bbc565b91505092959194509250565b610d64816112a9565b82525050565b610d73816112bb565b82525050565b610d82816112bb565b82525050565b6000610d938261127c565b610d9d8185611287565b9350610dad818560208601611300565b610db681611333565b840191505092915050565b6000610dcc8261127c565b610dd68185611298565b9350610de6818560208601611300565b610def81611333565b840191505092915050565b6000610e07602383611298565b91507f4f6e6c792063616665205374616666206861766520636f6e74726f6c2061636360008301527f65737300000000000000000000000000000000000000000000000000000000006020830152604082019050919050565b6000610e6d601483611298565b91507f4e616d652063616e6e6f7420626520656d7074790000000000000000000000006000830152602082019050919050565b6000610ead601383611298565b91507f4974656d20446f6573204e4f54206578697374000000000000000000000000006000830152602082019050919050565b6000610eed601383611298565b91507f4974656d20646f6573204e4f54206578697374000000000000000000000000006000830152602082019050919050565b6000610f2d601b83611298565b91507f4e65772061646472657373206973205a65726f206164647265737300000000006000830152602082019050919050565b6000610f6d601383611298565b91507f6974656d20446f6573204e4f54206578697374000000000000000000000000006000830152602082019050919050565b6000610fad601c83611298565b91507f5072696365206d7573742062652067726561746572207468616e2030000000006000830152602082019050919050565b6000608083016000830151610ff86000860182611043565b50602083015184820360208601526110108282610d88565b91505060408301516110256040860182611043565b5060608301516110386060860182610d6a565b508091505092915050565b61104c816112e7565b82525050565b61105b816112e7565b82525050565b60006020820190506110766000830184610d5b565b92915050565b6000602082019050818103600083015261109581610dfa565b9050919050565b600060208201905081810360008301526110b581610e60565b9050919050565b600060208201905081810360008301526110d581610ea0565b9050919050565b600060208201905081810360008301526110f581610ee0565b9050919050565b6000602082019050818103600083015261111581610f20565b9050919050565b6000602082019050818103600083015261113581610f60565b9050919050565b6000602082019050818103600083015261115581610fa0565b9050919050565b600060208201905081810360008301526111768184610fe0565b905092915050565b60006020820190506111936000830184611052565b92915050565b60006060820190506111ae6000830186611052565b81810360208301526111c08185610dc1565b90506111cf6040830184611052565b949350505050565b60006080820190506111ec6000830187611052565b81810360208301526111fe8186610dc1565b905061120d6040830185611052565b61121a6060830184610d79565b95945050505050565b6000604051905081810181811067ffffffffffffffff8211171561124657600080fd5b8060405250919050565b600067ffffffffffffffff82111561126757600080fd5b601f19601f8301169050602081019050919050565b600081519050919050565b600082825260208201905092915050565b600082825260208201905092915050565b60006112b4826112c7565b9050919050565b60008115159050919050565b600073ffffffffffffffffffffffffffffffffffffffff82169050919050565b6000819050919050565b82818337600083830152505050565b60005b8381101561131e578082015181840152602081019050611303565b8381111561132d576000848401525b50505050565b6000601f19601f8301169050919050565b61134d816112a9565b811461135857600080fd5b50565b611364816112bb565b811461136f57600080fd5b50565b61137b816112e7565b811461138657600080fd5b5056fea2646970667358221220d9bba98896310ea98cc8252de69c0610c26c7bea99ad7708d343978aef70bde564736f6c63430007000033",
  "immutableReferences": {},
  "source": "// SPDX-License-Identifier: GPL-3.0\r\n\r\npragma solidity >=0.7.0 <0.9.0;\r\npragma experimental ABIEncoderV2;\r\n\r\ncontract menuManagement{\r\n    //structure\r\n    struct MenuItem{\r\n        uint id;\r\n        string name;\r\n        uint price;\r\n        bool isAvailable;\r\n    }\r\n\r\n    //static variable to keep track \r\n    mapping(uint => MenuItem) public menuItems;\r\n    uint public nextItemId;\r\n    address public Owner;\r\n\r\n    //only cafe staff the owner of the contract can make changes\r\n    modifier onlyStaff(){\r\n        require (msg.sender == Owner, \"Only cafe Staff have control access\");\r\n        _;\r\n    }\r\n\r\n    constructor (){\r\n        Owner=msg.sender;\r\n    }\r\n\r\n    //events\r\n    event itemAdded (uint itemId, string name, uint price);\r\n    event itemUpdated (uint itemId, string name, uint price, bool isAvailable);\r\n    event itemRemoved (uint itemId);\r\n\r\n    //Functions\r\n    function addItem (string memory name, uint price) public onlyStaff{\r\n        // name cannot be none\r\n        require(bytes(name).length > 0, \"Name cannot be empty\");\r\n        // price cannot be zero\r\n        require(price > 0, \"Price must be greater than 0\");\r\n        menuItems[nextItemId] = MenuItem(nextItemId, name, price, true);\r\n        nextItemId++;\r\n        emit itemAdded(nextItemId, name, price);\r\n    }\r\n\r\n    function updateItem (uint itemId, string memory name, uint price, bool isAvailable) public onlyStaff{\r\n        // name cannot be none\r\n        require(bytes(name).length > 0, \"Name cannot be empty\");\r\n        // price cannot be zero\r\n        require(price > 0, \"Price must be greater than 0\");\r\n        require (itemId < nextItemId, \"Item does NOT exist\");\r\n        menuItems[itemId] = MenuItem (itemId, name, price, isAvailable);\r\n        emit itemUpdated(itemId, name, price, isAvailable);\r\n    }\r\n\r\n    function removeItem (uint itemId) public onlyStaff{\r\n        require(itemId < nextItemId, \"item Does NOT exist\");\r\n        delete menuItems[itemId];\r\n        emit itemRemoved(itemId);\r\n    }\r\n\r\n    function getItem (uint itemId) public view returns (MenuItem memory) {\r\n        require(itemId < nextItemId, \"Item Does NOT exist\");\r\n        return menuItems[itemId];\r\n    }\r\n\r\n    function transferOwnership (address newOwner) public onlyStaff {\r\n        require(newOwner != address(0), \"New address is Zero address\");\r\n        Owner = newOwner;\r\n    }\r\n\r\n}",
  "sourcePath": "C:\\Users\\mibra\\PROJ2\\contracts\\Menu_Management.sol",
  "compiler": {
    "name": "solc",
    "version": "0.7.0+commit.9e61f92b.Emscripten.clang"
  },
  "schemaVersion": "3.4.16",
  "updatedAt": "2024-01-06T18:54:50.757Z",
  "devdoc": {
    "kind": "dev",
    "methods": {},
    "version": 1
  },
  "userdoc": {
    "kind": "user",
    "methods": {},
    "version": 1
  }
}