{
  "contractName": "orderProcess",
  "abi": [
    {
      "inputs": [
        {
          "internalType": "address",
          "name": "_menuManagementaddress",
          "type": "address"
        },
        {
          "internalType": "address",
          "name": "_loyaltyAndRewardAddress",
          "type": "address"
        },
        {
          "internalType": "address",
          "name": "_discountsPromotionsAddress",
          "type": "address"
        },
        {
          "internalType": "address",
          "name": "_paymentAddress",
          "type": "address"
        }
      ],
      "stateMutability": "nonpayable",
      "type": "constructor"
    },
    {
      "anonymous": false,
      "inputs": [
        {
          "indexed": false,
          "internalType": "uint256",
          "name": "orderId",
          "type": "uint256"
        },
        {
          "indexed": false,
          "internalType": "enum OrderStatus",
          "name": "_status",
          "type": "uint8"
        }
      ],
      "name": "OrderStatusUpdated",
      "type": "event"
    },
    {
      "anonymous": false,
      "inputs": [
        {
          "indexed": false,
          "internalType": "uint256",
          "name": "orderId",
          "type": "uint256"
        },
        {
          "indexed": false,
          "internalType": "address",
          "name": "customer",
          "type": "address"
        }
      ],
      "name": "orderFulfilled",
      "type": "event"
    },
    {
      "anonymous": false,
      "inputs": [
        {
          "indexed": false,
          "internalType": "uint256",
          "name": "orderId",
          "type": "uint256"
        },
        {
          "indexed": false,
          "internalType": "address",
          "name": "customer",
          "type": "address"
        },
        {
          "indexed": false,
          "internalType": "uint256",
          "name": "totalAmount",
          "type": "uint256"
        }
      ],
      "name": "orderPlaced",
      "type": "event"
    },
    {
      "inputs": [
        {
          "internalType": "uint256",
          "name": "",
          "type": "uint256"
        }
      ],
      "name": "orders",
      "outputs": [
        {
          "internalType": "uint256",
          "name": "orderId",
          "type": "uint256"
        },
        {
          "internalType": "address",
          "name": "customer",
          "type": "address"
        },
        {
          "internalType": "uint256",
          "name": "totalAmount",
          "type": "uint256"
        },
        {
          "internalType": "bool",
          "name": "isFulfilled",
          "type": "bool"
        },
        {
          "internalType": "enum OrderStatus",
          "name": "status",
          "type": "uint8"
        }
      ],
      "stateMutability": "view",
      "type": "function"
    },
    {
      "inputs": [],
      "name": "owner",
      "outputs": [
        {
          "internalType": "address",
          "name": "",
          "type": "address"
        }
      ],
      "stateMutability": "view",
      "type": "function"
    },
    {
      "inputs": [
        {
          "internalType": "address",
          "name": "_paymentAddress",
          "type": "address"
        }
      ],
      "name": "setPaymentAddress",
      "outputs": [],
      "stateMutability": "nonpayable",
      "type": "function"
    },
    {
      "inputs": [
        {
          "components": [
            {
              "internalType": "uint256",
              "name": "itemId",
              "type": "uint256"
            },
            {
              "internalType": "uint256",
              "name": "quantity",
              "type": "uint256"
            }
          ],
          "internalType": "struct orderProcess.orderItem[]",
          "name": "items",
          "type": "tuple[]"
        }
      ],
      "name": "placeOrder",
      "outputs": [
        {
          "internalType": "uint256",
          "name": "orderId",
          "type": "uint256"
        }
      ],
      "stateMutability": "nonpayable",
      "type": "function"
    },
    {
      "inputs": [
        {
          "internalType": "uint256",
          "name": "orderId",
          "type": "uint256"
        }
      ],
      "name": "fulfillOrder",
      "outputs": [],
      "stateMutability": "nonpayable",
      "type": "function"
    },
    {
      "inputs": [
        {
          "internalType": "uint256",
          "name": "orderId",
          "type": "uint256"
        }
      ],
      "name": "getOrderDetails",
      "outputs": [
        {
          "components": [
            {
              "internalType": "uint256",
              "name": "orderId",
              "type": "uint256"
            },
            {
              "internalType": "address",
              "name": "customer",
              "type": "address"
            },
            {
              "components": [
                {
                  "internalType": "uint256",
                  "name": "itemId",
                  "type": "uint256"
                },
                {
                  "internalType": "uint256",
                  "name": "quantity",
                  "type": "uint256"
                }
              ],
              "internalType": "struct orderProcess.orderItem[]",
              "name": "items",
              "type": "tuple[]"
            },
            {
              "internalType": "uint256",
              "name": "totalAmount",
              "type": "uint256"
            },
            {
              "internalType": "bool",
              "name": "isFulfilled",
              "type": "bool"
            },
            {
              "internalType": "enum OrderStatus",
              "name": "status",
              "type": "uint8"
            }
          ],
          "internalType": "struct orderProcess.Order",
          "name": "",
          "type": "tuple"
        }
      ],
      "stateMutability": "view",
      "type": "function"
    },
    {
      "inputs": [
        {
          "internalType": "uint256",
          "name": "orderId",
          "type": "uint256"
        },
        {
          "internalType": "enum OrderStatus",
          "name": "_status",
          "type": "uint8"
        }
      ],
      "name": "updateOrderStatus",
      "outputs": [],
      "stateMutability": "nonpayable",
      "type": "function"
    }
  ],
  "bytecode": "0x60806040523480156200001157600080fd5b5060405162001af938038062001af983398181016040528101906200003791906200019c565b83600460006101000a81548173ffffffffffffffffffffffffffffffffffffffff021916908373ffffffffffffffffffffffffffffffffffffffff16021790555082600560006101000a81548173ffffffffffffffffffffffffffffffffffffffff021916908373ffffffffffffffffffffffffffffffffffffffff16021790555081600660006101000a81548173ffffffffffffffffffffffffffffffffffffffff021916908373ffffffffffffffffffffffffffffffffffffffff160217905550806000806101000a81548173ffffffffffffffffffffffffffffffffffffffff021916908373ffffffffffffffffffffffffffffffffffffffff16021790555033600160006101000a81548173ffffffffffffffffffffffffffffffffffffffff021916908373ffffffffffffffffffffffffffffffffffffffff1602179055505050505062000256565b60008151905062000196816200023c565b92915050565b60008060008060808587031215620001b357600080fd5b6000620001c38782880162000185565b9450506020620001d68782880162000185565b9350506040620001e98782880162000185565b9250506060620001fc8782880162000185565b91505092959194509250565b600062000215826200021c565b9050919050565b600073ffffffffffffffffffffffffffffffffffffffff82169050919050565b620002478162000208565b81146200025357600080fd5b50565b61189380620002666000396000f3fe608060405234801561001057600080fd5b506004361061007d5760003560e01c80638da5cb5b1161005b5780638da5cb5b146100ea578063a85c38ef14610108578063aab3196d1461013c578063ec7dd7bb146101585761007d565b806343e7fd45146100825780635e1e1004146100b25780636311e830146100ce575b600080fd5b61009c60048036038101906100979190610efe565b610188565b6040516100a99190611503565b60405180910390f35b6100cc60048036038101906100c79190610ed5565b610605565b005b6100e860048036038101906100e39190610f3f565b6106d8565b005b6100f2610937565b6040516100ff91906113bd565b60405180910390f35b610122600480360381019061011d9190610f3f565b61095d565b60405161013395949392919061157e565b60405180910390f35b61015660048036038101906101519190610f91565b6109cd565b005b610172600480360381019061016d9190610f3f565b610b1b565b60405161017f91906114e1565b60405180910390f35b6000806000905060006002600060035481526020019081526020016000209050338160010160006101000a81548173ffffffffffffffffffffffffffffffffffffffff021916908373ffffffffffffffffffffffffffffffffffffffff160217905550600354816000018190555060005b84518110156104e857600085828151811061021057fe5b6020026020010151602001511161025c576040517f08c379a000000000000000000000000000000000000000000000000000000000815260040161025390611401565b60405180910390fd5b600080600460009054906101000a900473ffffffffffffffffffffffffffffffffffffffff1673ffffffffffffffffffffffffffffffffffffffff16633129e7738885815181106102a957fe5b6020026020010151600001516040518263ffffffff1660e01b81526004016102d19190611503565b60006040518083038186803b1580156102e957600080fd5b505afa1580156102fd573d6000803e3d6000fd5b505050506040513d6000823e3d601f19601f820116820180604052508101906103269190610fcd565b9350935050508061036c576040517f08c379a000000000000000000000000000000000000000000000000000000000815260040161036390611441565b60405180910390fd5b6000600660009054906101000a900473ffffffffffffffffffffffffffffffffffffffff1673ffffffffffffffffffffffffffffffffffffffff1663310be9398986815181106103b857fe5b602002602001015160000151856040518363ffffffff1660e01b81526004016103e29291906115fa565b60206040518083038186803b1580156103fa57600080fd5b505afa15801561040e573d6000803e3d6000fd5b505050506040513d601f19601f820116820180604052508101906104329190610f68565b905087848151811061044057fe5b6020026020010151602001518102860195508460020160405180604001604052808a878151811061046d57fe5b60200260200101516000015181526020018a878151811061048a57fe5b60200260200101516020015181525090806001815401808255809150506001900390600052602060002090600202016000909190919091506000820151816000015560208201518160010155505050505080806001019150506101f9565b5081816003018190555060008160040160016101000a81548160ff0219169083600481111561051357fe5b02179055507fd504999bbb2f9fefc01308e3da0c4b5514a66e90b4ca788e80f855ef5d90db9e600354338460405161054d93929190611547565b60405180910390a160008054906101000a900473ffffffffffffffffffffffffffffffffffffffff1673ffffffffffffffffffffffffffffffffffffffff16630a9dfa228484336040518463ffffffff1660e01b81526004016105b293929190611623565b600060405180830381600087803b1580156105cc57600080fd5b505af11580156105e0573d6000803e3d6000fd5b5050505060036000815480929190600101919050555060016003540392505050919050565b600160009054906101000a900473ffffffffffffffffffffffffffffffffffffffff1673ffffffffffffffffffffffffffffffffffffffff163373ffffffffffffffffffffffffffffffffffffffff1614610695576040517f08c379a000000000000000000000000000000000000000000000000000000000815260040161068c90611461565b60405180910390fd5b806000806101000a81548173ffffffffffffffffffffffffffffffffffffffff021916908373ffffffffffffffffffffffffffffffffffffffff16021790555050565b60006002600083815260200190815260200160002090508060010160009054906101000a900473ffffffffffffffffffffffffffffffffffffffff1673ffffffffffffffffffffffffffffffffffffffff163373ffffffffffffffffffffffffffffffffffffffff1614610781576040517f08c379a0000000000000000000000000000000000000000000000000000000008152600401610778906114a1565b60405180910390fd5b8060040160009054906101000a900460ff16156107d3576040517f08c379a00000000000000000000000000000000000000000000000000000000081526004016107ca90611481565b60405180910390fd5b60018160040160006101000a81548160ff0219169083151502179055508060040160009054906101000a900460ff16801561083557506003600481111561081657fe5b8160040160019054906101000a900460ff16600481111561083357fe5b145b156108fa57600560009054906101000a900473ffffffffffffffffffffffffffffffffffffffff1673ffffffffffffffffffffffffffffffffffffffff1663da20569e8260010160009054906101000a900473ffffffffffffffffffffffffffffffffffffffff166108aa8460030154610cb1565b6040518363ffffffff1660e01b81526004016108c79291906113d8565b600060405180830381600087803b1580156108e157600080fd5b505af11580156108f5573d6000803e3d6000fd5b505050505b7f43842b7e6fc1b2b0f1b4b54f269a2f692ff01277e325c50600d2a1920a7349cf823360405161092b92919061151e565b60405180910390a15050565b600160009054906101000a900473ffffffffffffffffffffffffffffffffffffffff1681565b60026020528060005260406000206000915090508060000154908060010160009054906101000a900473ffffffffffffffffffffffffffffffffffffffff16908060030154908060040160009054906101000a900460ff16908060040160019054906101000a900460ff16905085565b600160009054906101000a900473ffffffffffffffffffffffffffffffffffffffff1673ffffffffffffffffffffffffffffffffffffffff163373ffffffffffffffffffffffffffffffffffffffff1614610a5d576040517f08c379a0000000000000000000000000000000000000000000000000000000008152600401610a5490611461565b60405180910390fd5b60006002600084815260200190815260200160002090506003548310610ab8576040517f08c379a0000000000000000000000000000000000000000000000000000000008152600401610aaf906114c1565b60405180910390fd5b818160040160016101000a81548160ff02191690836004811115610ad857fe5b02179055507fd9a86b644eb5f5b43cc8a700849852481080361c7a4b00ba646d1b46c5585f958383604051610b0e9291906115d1565b60405180910390a1505050565b610b23610cf0565b6003548210610b67576040517f08c379a0000000000000000000000000000000000000000000000000000000008152600401610b5e90611421565b60405180910390fd5b600260008381526020019081526020016000206040518060c0016040529081600082015481526020016001820160009054906101000a900473ffffffffffffffffffffffffffffffffffffffff1673ffffffffffffffffffffffffffffffffffffffff1673ffffffffffffffffffffffffffffffffffffffff16815260200160028201805480602002602001604051908101604052809291908181526020016000905b82821015610c5057838290600052602060002090600202016040518060400160405290816000820154815260200160018201548152505081526020019060010190610c0a565b505050508152602001600382015481526020016004820160009054906101000a900460ff161515151581526020016004820160019054906101000a900460ff166004811115610c9b57fe5b6004811115610ca657fe5b815250509050919050565b6000678ac7230489e800008210610ccd57600582029050610ceb565b674563918244f400008210610ce757600382029050610ceb565b8190505b919050565b6040518060c0016040528060008152602001600073ffffffffffffffffffffffffffffffffffffffff168152602001606081526020016000815260200160001515815260200160006004811115610d4357fe5b81525090565b600081359050610d5881611808565b92915050565b600082601f830112610d6f57600080fd5b8135610d82610d7d82611687565b61165a565b91508181835260208401935060208101905083856040840282011115610da757600080fd5b60005b83811015610dd75781610dbd8882610e5f565b845260208401935060408301925050600181019050610daa565b5050505092915050565b600081519050610df08161181f565b92915050565b600081359050610e0581611836565b92915050565b600082601f830112610e1c57600080fd5b8151610e2f610e2a826116af565b61165a565b91508082526020830160208301858383011115610e4b57600080fd5b610e568382846117c8565b50505092915050565b600060408284031215610e7157600080fd5b610e7b604061165a565b90506000610e8b84828501610eab565b6000830152506020610e9f84828501610eab565b60208301525092915050565b600081359050610eba81611846565b92915050565b600081519050610ecf81611846565b92915050565b600060208284031215610ee757600080fd5b6000610ef584828501610d49565b91505092915050565b600060208284031215610f1057600080fd5b600082013567ffffffffffffffff811115610f2a57600080fd5b610f3684828501610d5e565b91505092915050565b600060208284031215610f5157600080fd5b6000610f5f84828501610eab565b91505092915050565b600060208284031215610f7a57600080fd5b6000610f8884828501610ec0565b91505092915050565b60008060408385031215610fa457600080fd5b6000610fb285828601610eab565b9250506020610fc385828601610df6565b9150509250929050565b60008060008060808587031215610fe357600080fd5b6000610ff187828801610ec0565b945050602085015167ffffffffffffffff81111561100e57600080fd5b61101a87828801610e0b565b935050604061102b87828801610ec0565b925050606061103c87828801610de1565b91505092959194509250565b60006110548383611370565b60408301905092915050565b61106981611780565b82525050565b61107881611725565b82525050565b61108781611725565b82525050565b6000611098826116eb565b6110a28185611703565b93506110ad836116db565b8060005b838110156110de5781516110c58882611048565b97506110d0836116f6565b9250506001810190506110b1565b5085935050505092915050565b6110f481611737565b82525050565b61110381611737565b82525050565b61111281611792565b82525050565b61112181611792565b82525050565b6000611134601f83611714565b91507f5175616e74697479206d7573742062652067726561746572207468616e2030006000830152602082019050919050565b6000611174601783611714565b91507f4f72646572206973204e6f742059657420706c616365640000000000000000006000830152602082019050919050565b60006111b4601283611714565b91507f4974656d206e6f7420617661696c61626c6500000000000000000000000000006000830152602082019050919050565b60006111f4600a83611714565b91507f6f6e6c79206f776e6572000000000000000000000000000000000000000000006000830152602082019050919050565b6000611234601183611714565b91507f416c72656164792066756c66696c6c65640000000000000000000000000000006000830152602082019050919050565b6000611274601f83611714565b91507f4f6e6c7920637573746f6d65722063616e2066756c66696c6c206f72646572006000830152602082019050919050565b60006112b4601483611714565b91507f4f7264657220646f6573206e6f742065786973740000000000000000000000006000830152602082019050919050565b600060c0830160008301516112ff600086018261139f565b506020830151611312602086018261106f565b506040830151848203604086015261132a828261108d565b915050606083015161133f606086018261139f565b50608083015161135260808601826110eb565b5060a083015161136560a0860182611109565b508091505092915050565b604082016000820151611386600085018261139f565b506020820151611399602085018261139f565b50505050565b6113a881611776565b82525050565b6113b781611776565b82525050565b60006020820190506113d2600083018461107e565b92915050565b60006040820190506113ed600083018561107e565b6113fa60208301846113ae565b9392505050565b6000602082019050818103600083015261141a81611127565b9050919050565b6000602082019050818103600083015261143a81611167565b9050919050565b6000602082019050818103600083015261145a816111a7565b9050919050565b6000602082019050818103600083015261147a816111e7565b9050919050565b6000602082019050818103600083015261149a81611227565b9050919050565b600060208201905081810360008301526114ba81611267565b9050919050565b600060208201905081810360008301526114da816112a7565b9050919050565b600060208201905081810360008301526114fb81846112e7565b905092915050565b600060208201905061151860008301846113ae565b92915050565b600060408201905061153360008301856113ae565b6115406020830184611060565b9392505050565b600060608201905061155c60008301866113ae565b6115696020830185611060565b61157660408301846113ae565b949350505050565b600060a08201905061159360008301886113ae565b6115a0602083018761107e565b6115ad60408301866113ae565b6115ba60608301856110fa565b6115c76080830184611118565b9695505050505050565b60006040820190506115e660008301856113ae565b6115f36020830184611118565b9392505050565b600060408201905061160f60008301856113ae565b61161c60208301846113ae565b9392505050565b600060608201905061163860008301866113ae565b61164560208301856113ae565b6116526040830184611060565b949350505050565b6000604051905081810181811067ffffffffffffffff8211171561167d57600080fd5b8060405250919050565b600067ffffffffffffffff82111561169e57600080fd5b602082029050602081019050919050565b600067ffffffffffffffff8211156116c657600080fd5b601f19601f8301169050602081019050919050565b6000819050602082019050919050565b600081519050919050565b6000602082019050919050565b600082825260208201905092915050565b600082825260208201905092915050565b600061173082611756565b9050919050565b60008115159050919050565b6000819050611751826117fb565b919050565b600073ffffffffffffffffffffffffffffffffffffffff82169050919050565b6000819050919050565b600061178b826117a4565b9050919050565b600061179d82611743565b9050919050565b60006117af826117b6565b9050919050565b60006117c182611756565b9050919050565b60005b838110156117e65780820151818401526020810190506117cb565b838111156117f5576000848401525b50505050565b6005811061180557fe5b50565b61181181611725565b811461181c57600080fd5b50565b61182881611737565b811461183357600080fd5b50565b6005811061184357600080fd5b50565b61184f81611776565b811461185a57600080fd5b5056fea2646970667358221220c0ffc26580ab90050ee703e837eb83be31c5692572c8812080ae2bcbf2b377b864736f6c63430007000033",
  "immutableReferences": {},
  "source": "// SPDX-License-Identifier: GPL-3.0\r\n\r\npragma solidity >=0.7.0 <0.9.0;\r\npragma experimental ABIEncoderV2;\r\n\r\nimport \"./IOrderProcess.sol\";\r\nimport \"./ILoyaltyAndReward.sol\";\r\nimport \"./IPromotionAndDiscount.sol\";\r\nimport \"./IMenuManagement.sol\";\r\nimport \"./IPayment.sol\";  \r\n\r\n\r\n// enum OrderStatus { Placed, Preparing, Ready, Completed }\r\n\r\ncontract orderProcess {\r\n    IPayment paymentContract;\r\n\r\n    struct orderItem {\r\n        uint itemId;\r\n        uint quantity;\r\n    }\r\n\r\n    struct Order {\r\n        uint orderId;\r\n        address customer;\r\n        orderItem[] items;\r\n        uint totalAmount;\r\n        bool isFulfilled;\r\n        OrderStatus status;\r\n    }\r\n\r\n    address public owner;\r\n    mapping (uint => Order) public orders;\r\n    uint nextOrderId;\r\n    menuManagement menuManagementContract;\r\n    LoyaltyAndReward loyaltyAndRewardContract;\r\n    DiscountsPromotions discountsPromotionsContract;\r\n\r\n    event orderPlaced (uint orderId, address customer, uint totalAmount);\r\n    event orderFulfilled (uint orderId, address customer);\r\n    event OrderStatusUpdated (uint orderId, OrderStatus _status);\r\n\r\n    modifier isItemAvailable(uint itemId){\r\n        (, , , bool isAvailable) = menuManagementContract.getItem(itemId);\r\n        require(isAvailable, \"item is NOT available\");\r\n        _;\r\n    }\r\n\r\n    modifier onlyOwner (){\r\n        require(msg.sender == owner, \"only owner\");\r\n        _;\r\n    }\r\n\r\n    \r\n    function setPaymentAddress(address _paymentAddress) external onlyOwner {\r\n       paymentContract = IPayment(_paymentAddress); \r\n    }\r\n\r\n\r\n    constructor(address _menuManagementaddress, address _loyaltyAndRewardAddress, address _discountsPromotionsAddress, address _paymentAddress){\r\n        menuManagementContract = menuManagement(_menuManagementaddress);\r\n        loyaltyAndRewardContract = LoyaltyAndReward(_loyaltyAndRewardAddress);\r\n        discountsPromotionsContract = DiscountsPromotions(_discountsPromotionsAddress);\r\n        paymentContract = IPayment(_paymentAddress);\r\n        owner = msg.sender;\r\n    }\r\n\r\n    function placeOrder(orderItem[] memory items) public returns (uint orderId){\r\n        uint totalAmount = 0;\r\n        Order storage order = orders[nextOrderId];\r\n        order.customer = msg.sender;\r\n        order.orderId = nextOrderId;\r\n\r\n        for (uint i = 0; i < items.length; i++){\r\n            require (items[i].quantity > 0, \"Quantity must be greater than 0\");\r\n            (, , uint price, bool isAvailable) = menuManagementContract.getItem(items[i].itemId);\r\n            require(isAvailable, \"Item not available\");\r\n\r\n            uint discountedPrice = discountsPromotionsContract.getDiscountedPrice(items[i].itemId, price);\r\n\r\n            totalAmount += discountedPrice * items[i].quantity;\r\n            order.items.push(orderItem(items[i].itemId, items[i].quantity));\r\n        }\r\n\r\n        order.totalAmount = totalAmount;\r\n        order.status = OrderStatus.Placed;\r\n        emit orderPlaced(nextOrderId, msg.sender, totalAmount);\r\n        paymentContract.processPayment(orderId, totalAmount, msg.sender);\r\n        nextOrderId++;\r\n        return nextOrderId - 1;\r\n    }\r\n\r\n    function fulfillOrder (uint orderId) public {\r\n        Order storage order = orders[orderId];\r\n        require (msg.sender == order.customer, \"Only customer can fulfill order\");\r\n        require (!order.isFulfilled, \"Already fulfilled\");\r\n\r\n        order.isFulfilled = true;\r\n\r\n        if(order.isFulfilled && order.status == OrderStatus.Completed) {\r\n            loyaltyAndRewardContract.issuePoints(order.customer, calculatePoints(order.totalAmount));\r\n        }\r\n\r\n        emit orderFulfilled(orderId, msg.sender);\r\n    }\r\n\r\n    function calculatePoints(uint totalAmount) internal pure returns (uint256) {\r\n        if (totalAmount >= 10 ether){\r\n            return totalAmount * 5;\r\n        } else if (totalAmount >= 5 ether){\r\n            return totalAmount * 3;\r\n        } else {\r\n            return totalAmount;\r\n        }\r\n        \r\n    }\r\n\r\n    function getOrderDetails(uint orderId) public view returns (Order memory){\r\n        require (orderId < nextOrderId, \"Order is Not Yet placed\");\r\n        return orders[orderId];\r\n    } \r\n\r\n    // Update order status\r\n    function updateOrderStatus(uint orderId, OrderStatus _status) public onlyOwner {\r\n        Order storage order = orders[orderId];\r\n        // check the order exists\r\n        require(orderId < nextOrderId, \"Order does not exist\"); \r\n        order.status = _status;\r\n        emit OrderStatusUpdated(orderId, _status);\r\n    }\r\n\r\n\r\n}",
  "sourcePath": "C:\\Users\\mibra\\PROJ2\\contracts\\Order_Process.sol",
  "compiler": {
    "name": "solc",
    "version": "0.7.0+commit.9e61f92b.Emscripten.clang"
  },
  "schemaVersion": "3.4.16",
  "updatedAt": "2024-01-06T18:54:50.793Z",
  "devdoc": {
    "kind": "dev",
    "methods": {},
    "version": 1
  },
  "userdoc": {
    "kind": "user",
    "methods": {},
    "version": 1
  }
}