{
  "contractName": "Payment",
  "abi": [
    {
      "inputs": [
        {
          "internalType": "address",
          "name": "_orderAddress",
          "type": "address"
        }
      ],
      "stateMutability": "nonpayable",
      "type": "constructor"
    },
    {
      "anonymous": false,
      "inputs": [
        {
          "indexed": true,
          "internalType": "address",
          "name": "owner",
          "type": "address"
        },
        {
          "indexed": true,
          "internalType": "address",
          "name": "spender",
          "type": "address"
        },
        {
          "indexed": false,
          "internalType": "uint256",
          "name": "value",
          "type": "uint256"
        }
      ],
      "name": "Approval",
      "type": "event"
    },
    {
      "anonymous": false,
      "inputs": [
        {
          "indexed": false,
          "internalType": "uint256",
          "name": "orderId",
          "type": "uint256"
        },
        {
          "indexed": false,
          "internalType": "uint256",
          "name": "amount",
          "type": "uint256"
        },
        {
          "indexed": false,
          "internalType": "address",
          "name": "customer",
          "type": "address"
        }
      ],
      "name": "PaymentProcessed",
      "type": "event"
    },
    {
      "anonymous": false,
      "inputs": [
        {
          "indexed": false,
          "internalType": "uint256",
          "name": "orderId",
          "type": "uint256"
        },
        {
          "indexed": false,
          "internalType": "uint256",
          "name": "amount",
          "type": "uint256"
        },
        {
          "indexed": false,
          "internalType": "address",
          "name": "customer",
          "type": "address"
        }
      ],
      "name": "RefundProcessed",
      "type": "event"
    },
    {
      "anonymous": false,
      "inputs": [
        {
          "indexed": true,
          "internalType": "address",
          "name": "from",
          "type": "address"
        },
        {
          "indexed": true,
          "internalType": "address",
          "name": "to",
          "type": "address"
        },
        {
          "indexed": false,
          "internalType": "uint256",
          "name": "value",
          "type": "uint256"
        }
      ],
      "name": "Transfer",
      "type": "event"
    },
    {
      "inputs": [
        {
          "internalType": "address",
          "name": "",
          "type": "address"
        },
        {
          "internalType": "address",
          "name": "",
          "type": "address"
        }
      ],
      "name": "allowed",
      "outputs": [
        {
          "internalType": "uint256",
          "name": "",
          "type": "uint256"
        }
      ],
      "stateMutability": "view",
      "type": "function"
    },
    {
      "inputs": [
        {
          "internalType": "address",
          "name": "",
          "type": "address"
        }
      ],
      "name": "balances",
      "outputs": [
        {
          "internalType": "uint256",
          "name": "",
          "type": "uint256"
        }
      ],
      "stateMutability": "view",
      "type": "function"
    },
    {
      "inputs": [],
      "name": "decimals",
      "outputs": [
        {
          "internalType": "uint8",
          "name": "",
          "type": "uint8"
        }
      ],
      "stateMutability": "view",
      "type": "function"
    },
    {
      "inputs": [],
      "name": "name",
      "outputs": [
        {
          "internalType": "string",
          "name": "",
          "type": "string"
        }
      ],
      "stateMutability": "view",
      "type": "function"
    },
    {
      "inputs": [],
      "name": "orderAddress",
      "outputs": [
        {
          "internalType": "address",
          "name": "",
          "type": "address"
        }
      ],
      "stateMutability": "view",
      "type": "function"
    },
    {
      "inputs": [],
      "name": "orderProcessContract",
      "outputs": [
        {
          "internalType": "contract IOrderProcess",
          "name": "",
          "type": "address"
        }
      ],
      "stateMutability": "view",
      "type": "function"
    },
    {
      "inputs": [],
      "name": "owner",
      "outputs": [
        {
          "internalType": "address",
          "name": "",
          "type": "address"
        }
      ],
      "stateMutability": "view",
      "type": "function"
    },
    {
      "inputs": [],
      "name": "symbol",
      "outputs": [
        {
          "internalType": "string",
          "name": "",
          "type": "string"
        }
      ],
      "stateMutability": "view",
      "type": "function"
    },
    {
      "inputs": [],
      "name": "totalSupply",
      "outputs": [
        {
          "internalType": "uint256",
          "name": "",
          "type": "uint256"
        }
      ],
      "stateMutability": "view",
      "type": "function"
    },
    {
      "inputs": [
        {
          "internalType": "address",
          "name": "_orderProcessAddress",
          "type": "address"
        }
      ],
      "name": "setOrderProcessAddress",
      "outputs": [],
      "stateMutability": "nonpayable",
      "type": "function"
    },
    {
      "inputs": [
        {
          "internalType": "address",
          "name": "to",
          "type": "address"
        },
        {
          "internalType": "uint256",
          "name": "value",
          "type": "uint256"
        }
      ],
      "name": "transfer",
      "outputs": [
        {
          "internalType": "bool",
          "name": "",
          "type": "bool"
        }
      ],
      "stateMutability": "nonpayable",
      "type": "function"
    },
    {
      "inputs": [
        {
          "internalType": "address",
          "name": "from",
          "type": "address"
        },
        {
          "internalType": "address",
          "name": "to",
          "type": "address"
        },
        {
          "internalType": "uint256",
          "name": "value",
          "type": "uint256"
        }
      ],
      "name": "transferFrom",
      "outputs": [
        {
          "internalType": "bool",
          "name": "",
          "type": "bool"
        }
      ],
      "stateMutability": "nonpayable",
      "type": "function"
    },
    {
      "inputs": [
        {
          "internalType": "address",
          "name": "spender",
          "type": "address"
        },
        {
          "internalType": "uint256",
          "name": "value",
          "type": "uint256"
        }
      ],
      "name": "approve",
      "outputs": [
        {
          "internalType": "bool",
          "name": "",
          "type": "bool"
        }
      ],
      "stateMutability": "nonpayable",
      "type": "function"
    },
    {
      "inputs": [
        {
          "internalType": "address",
          "name": "owner",
          "type": "address"
        }
      ],
      "name": "balanceOf",
      "outputs": [
        {
          "internalType": "uint256",
          "name": "balance",
          "type": "uint256"
        }
      ],
      "stateMutability": "view",
      "type": "function"
    },
    {
      "inputs": [
        {
          "internalType": "address",
          "name": "owner",
          "type": "address"
        },
        {
          "internalType": "address",
          "name": "spender",
          "type": "address"
        }
      ],
      "name": "allowance",
      "outputs": [
        {
          "internalType": "uint256",
          "name": "",
          "type": "uint256"
        }
      ],
      "stateMutability": "view",
      "type": "function"
    },
    {
      "inputs": [
        {
          "internalType": "uint256",
          "name": "orderId",
          "type": "uint256"
        },
        {
          "internalType": "uint256",
          "name": "amount",
          "type": "uint256"
        },
        {
          "internalType": "address",
          "name": "customer",
          "type": "address"
        }
      ],
      "name": "processPayment",
      "outputs": [],
      "stateMutability": "nonpayable",
      "type": "function"
    },
    {
      "inputs": [
        {
          "internalType": "uint256",
          "name": "orderId",
          "type": "uint256"
        },
        {
          "internalType": "uint256",
          "name": "amount",
          "type": "uint256"
        },
        {
          "internalType": "address",
          "name": "customer",
          "type": "address"
        }
      ],
      "name": "refundPayment",
      "outputs": [],
      "stateMutability": "nonpayable",
      "type": "function"
    },
    {
      "inputs": [
        {
          "internalType": "address",
          "name": "newAddress",
          "type": "address"
        }
      ],
      "name": "updateOrderProcessAddress",
      "outputs": [],
      "stateMutability": "nonpayable",
      "type": "function"
    }
  ],
  "bytecode": "0x60806040526040518060400160405280600881526020017f46617374436f696e0000000000000000000000000000000000000000000000008152506006908051906020019062000051929190620001b8565b506040518060400160405280600281526020017f4643000000000000000000000000000000000000000000000000000000000000815250600790805190602001906200009f929190620001b8565b506012600860006101000a81548160ff021916908360ff160217905550348015620000c957600080fd5b5060405162001b2638038062001b268339818101604052810190620000ef919062000275565b336000806101000a81548173ffffffffffffffffffffffffffffffffffffffff021916908373ffffffffffffffffffffffffffffffffffffffff16021790555080600160006101000a81548173ffffffffffffffffffffffffffffffffffffffff021916908373ffffffffffffffffffffffffffffffffffffffff16021790555080600260006101000a81548173ffffffffffffffffffffffffffffffffffffffff021916908373ffffffffffffffffffffffffffffffffffffffff16021790555050620002ef565b828054600181600116156101000203166002900490600052602060002090601f016020900481019282601f10620001fb57805160ff19168380011785556200022c565b828001600101855582156200022c579182015b828111156200022b5782518255916020019190600101906200020e565b5b5090506200023b91906200023f565b5090565b5b808211156200025a57600081600090555060010162000240565b5090565b6000815190506200026f81620002d5565b92915050565b6000602082840312156200028857600080fd5b600062000298848285016200025e565b91505092915050565b6000620002ae82620002b5565b9050919050565b600073ffffffffffffffffffffffffffffffffffffffff82169050919050565b620002e081620002a1565b8114620002ec57600080fd5b50565b61182780620002ff6000396000f3fe608060405234801561001057600080fd5b50600436106101165760003560e01c80635c658165116100a257806395d89b411161007157806395d89b41146102f7578063a9059cbb14610315578063abd96b6514610345578063dd62ed3e14610361578063f388c5921461039157610116565b80635c6581651461025d57806370a082311461028d5780638b7c254a146102bd5780638da5cb5b146102d957610116565b806323b872dd116100e957806323b872dd146101a357806327e235e3146101d3578063313ce567146102035780634f5843421461022157806350a0b2d71461023f57610116565b806306fdde031461011b578063095ea7b3146101395780630a9dfa221461016957806318160ddd14610185575b600080fd5b6101236103ad565b6040516101309190611560565b60405180910390f35b610153600480360381019061014e919061123f565b61044b565b604051610160919061152a565b60405180910390f35b610183600480360381019061017e919061127b565b61053d565b005b61018d61072b565b60405161019a9190611622565b60405180910390f35b6101bd60048036038101906101b891906111f0565b610731565b6040516101ca919061152a565b60405180910390f35b6101ed60048036038101906101e8919061118b565b6109d6565b6040516101fa9190611622565b60405180910390f35b61020b6109ee565b604051610218919061169d565b60405180910390f35b610229610a01565b604051610236919061150f565b60405180910390f35b610247610a27565b6040516102549190611545565b60405180910390f35b610277600480360381019061027291906111b4565b610a4d565b6040516102849190611622565b60405180910390f35b6102a760048036038101906102a2919061118b565b610a72565b6040516102b49190611622565b60405180910390f35b6102d760048036038101906102d2919061118b565b610abb565b005b6102e1610bce565b6040516102ee919061150f565b60405180910390f35b6102ff610bf2565b60405161030c9190611560565b60405180910390f35b61032f600480360381019061032a919061123f565b610c90565b60405161033c919061152a565b60405180910390f35b61035f600480360381019061035a919061118b565b610e1d565b005b61037b600480360381019061037691906111b4565b610eef565b6040516103889190611622565b60405180910390f35b6103ab60048036038101906103a6919061127b565b610f76565b005b60068054600181600116156101000203166002900480601f0160208091040260200160405190810160405280929190818152602001828054600181600116156101000203166002900480156104435780601f1061041857610100808354040283529160200191610443565b820191906000526020600020905b81548152906001019060200180831161042657829003601f168201915b505050505081565b600081600460003373ffffffffffffffffffffffffffffffffffffffff1673ffffffffffffffffffffffffffffffffffffffff16815260200190815260200160002060008573ffffffffffffffffffffffffffffffffffffffff1673ffffffffffffffffffffffffffffffffffffffff168152602001908152602001600020819055508273ffffffffffffffffffffffffffffffffffffffff163373ffffffffffffffffffffffffffffffffffffffff167f8c5be1e5ebec7d5bd14f71427d1e84f3dd0314c0f7b2291e5b200ac8c7c3b9258460405161052b9190611622565b60405180910390a36001905092915050565b600260009054906101000a900473ffffffffffffffffffffffffffffffffffffffff1673ffffffffffffffffffffffffffffffffffffffff163373ffffffffffffffffffffffffffffffffffffffff16146105cd576040517f08c379a00000000000000000000000000000000000000000000000000000000081526004016105c4906115e2565b60405180910390fd5b81600360008373ffffffffffffffffffffffffffffffffffffffff1673ffffffffffffffffffffffffffffffffffffffff16815260200190815260200160002054101561064f576040517f08c379a0000000000000000000000000000000000000000000000000000000008152600401610646906115a2565b60405180910390fd5b61065a813084610731565b50600260009054906101000a900473ffffffffffffffffffffffffffffffffffffffff1673ffffffffffffffffffffffffffffffffffffffff1663aab3196d8460036040518363ffffffff1660e01b81526004016106b992919061163d565b600060405180830381600087803b1580156106d357600080fd5b505af11580156106e7573d6000803e3d6000fd5b505050507fd3cf07392836def0e201fe7eb13ae977b999e29d70d4c55f6c55ba26b001393e83838360405161071e93929190611666565b60405180910390a1505050565b60055481565b600080600460008673ffffffffffffffffffffffffffffffffffffffff1673ffffffffffffffffffffffffffffffffffffffff16815260200190815260200160002060003373ffffffffffffffffffffffffffffffffffffffff1673ffffffffffffffffffffffffffffffffffffffff16815260200190815260200160002054905082600360008773ffffffffffffffffffffffffffffffffffffffff1673ffffffffffffffffffffffffffffffffffffffff16815260200190815260200160002054101580156108025750828110155b610841576040517f08c379a000000000000000000000000000000000000000000000000000000000815260040161083890611582565b60405180910390fd5b82600360008673ffffffffffffffffffffffffffffffffffffffff1673ffffffffffffffffffffffffffffffffffffffff1681526020019081526020016000206000828254019250508190555082600360008773ffffffffffffffffffffffffffffffffffffffff1673ffffffffffffffffffffffffffffffffffffffff1681526020019081526020016000206000828254039250508190555082600460008773ffffffffffffffffffffffffffffffffffffffff1673ffffffffffffffffffffffffffffffffffffffff16815260200190815260200160002060003373ffffffffffffffffffffffffffffffffffffffff1673ffffffffffffffffffffffffffffffffffffffff168152602001908152602001600020600082825403925050819055508373ffffffffffffffffffffffffffffffffffffffff168573ffffffffffffffffffffffffffffffffffffffff167fddf252ad1be2c89b69c2b068fc378daa952ba7f163c4a11628f55a4df523b3ef856040516109c29190611622565b60405180910390a360019150509392505050565b60036020528060005260406000206000915090505481565b600860009054906101000a900460ff1681565b600160009054906101000a900473ffffffffffffffffffffffffffffffffffffffff1681565b600260009054906101000a900473ffffffffffffffffffffffffffffffffffffffff1681565b6004602052816000526040600020602052806000526040600020600091509150505481565b6000600360008373ffffffffffffffffffffffffffffffffffffffff1673ffffffffffffffffffffffffffffffffffffffff168152602001908152602001600020549050919050565b60008054906101000a900473ffffffffffffffffffffffffffffffffffffffff1673ffffffffffffffffffffffffffffffffffffffff163373ffffffffffffffffffffffffffffffffffffffff1614610b49576040517f08c379a0000000000000000000000000000000000000000000000000000000008152600401610b4090611602565b60405180910390fd5b80600160006101000a81548173ffffffffffffffffffffffffffffffffffffffff021916908373ffffffffffffffffffffffffffffffffffffffff16021790555080600260006101000a81548173ffffffffffffffffffffffffffffffffffffffff021916908373ffffffffffffffffffffffffffffffffffffffff16021790555050565b60008054906101000a900473ffffffffffffffffffffffffffffffffffffffff1681565b60078054600181600116156101000203166002900480601f016020809104026020016040519081016040528092919081815260200182805460018160011615610100020316600290048015610c885780601f10610c5d57610100808354040283529160200191610c88565b820191906000526020600020905b815481529060010190602001808311610c6b57829003601f168201915b505050505081565b600081600360003373ffffffffffffffffffffffffffffffffffffffff1673ffffffffffffffffffffffffffffffffffffffff168152602001908152602001600020541015610d14576040517f08c379a0000000000000000000000000000000000000000000000000000000008152600401610d0b906115a2565b60405180910390fd5b81600360003373ffffffffffffffffffffffffffffffffffffffff1673ffffffffffffffffffffffffffffffffffffffff1681526020019081526020016000206000828254039250508190555081600360008573ffffffffffffffffffffffffffffffffffffffff1673ffffffffffffffffffffffffffffffffffffffff168152602001908152602001600020600082825401925050819055508273ffffffffffffffffffffffffffffffffffffffff163373ffffffffffffffffffffffffffffffffffffffff167fddf252ad1be2c89b69c2b068fc378daa952ba7f163c4a11628f55a4df523b3ef84604051610e0b9190611622565b60405180910390a36001905092915050565b60008054906101000a900473ffffffffffffffffffffffffffffffffffffffff1673ffffffffffffffffffffffffffffffffffffffff163373ffffffffffffffffffffffffffffffffffffffff1614610eab576040517f08c379a0000000000000000000000000000000000000000000000000000000008152600401610ea290611602565b60405180910390fd5b80600260006101000a81548173ffffffffffffffffffffffffffffffffffffffff021916908373ffffffffffffffffffffffffffffffffffffffff16021790555050565b6000600460008473ffffffffffffffffffffffffffffffffffffffff1673ffffffffffffffffffffffffffffffffffffffff16815260200190815260200160002060008373ffffffffffffffffffffffffffffffffffffffff1673ffffffffffffffffffffffffffffffffffffffff16815260200190815260200160002054905092915050565b60008054906101000a900473ffffffffffffffffffffffffffffffffffffffff1673ffffffffffffffffffffffffffffffffffffffff163373ffffffffffffffffffffffffffffffffffffffff1614611004576040517f08c379a0000000000000000000000000000000000000000000000000000000008152600401610ffb90611602565b60405180910390fd5b81600360003073ffffffffffffffffffffffffffffffffffffffff1673ffffffffffffffffffffffffffffffffffffffff168152602001908152602001600020541015611086576040517f08c379a000000000000000000000000000000000000000000000000000000000815260040161107d906115c2565b60405180910390fd5b6110908183610c90565b50600260009054906101000a900473ffffffffffffffffffffffffffffffffffffffff1673ffffffffffffffffffffffffffffffffffffffff1663aab3196d8460046040518363ffffffff1660e01b81526004016110ef92919061163d565b600060405180830381600087803b15801561110957600080fd5b505af115801561111d573d6000803e3d6000fd5b505050507f88b90014acaadb8974b33b5e356673ec6588bf35d773e0c335ad745285a889c183838360405161115493929190611666565b60405180910390a1505050565b600081359050611170816117c3565b92915050565b600081359050611185816117da565b92915050565b60006020828403121561119d57600080fd5b60006111ab84828501611161565b91505092915050565b600080604083850312156111c757600080fd5b60006111d585828601611161565b92505060206111e685828601611161565b9150509250929050565b60008060006060848603121561120557600080fd5b600061121386828701611161565b935050602061122486828701611161565b925050604061123586828701611176565b9150509250925092565b6000806040838503121561125257600080fd5b600061126085828601611161565b925050602061127185828601611176565b9150509250929050565b60008060006060848603121561129057600080fd5b600061129e86828701611176565b93505060206112af86828701611176565b92505060406112c086828701611161565b9150509250925092565b6112d3816116d4565b82525050565b6112e2816116e6565b82525050565b6112f18161173c565b82525050565b61130081611760565b82525050565b6000611311826116b8565b61131b81856116c3565b935061132b818560208601611772565b611334816117a5565b840191505092915050565b600061134c6021836116c3565b91507f496e73756666696369656e742062616c616e6365206f7220616c6c6f77616e6360008301527f65000000000000000000000000000000000000000000000000000000000000006020830152604082019050919050565b60006113b26014836116c3565b91507f496e73756666696369656e742062616c616e63650000000000000000000000006000830152602082019050919050565b60006113f26020836116c3565b91507f496e73756666696369656e742062616c616e636520696e20636f6e74726163746000830152602082019050919050565b60006114326028836116c3565b91507f4f6e6c79204f7264657250726f6365737320636f6e74726163742063616e206360008301527f616c6c20746869730000000000000000000000000000000000000000000000006020830152604082019050919050565b60006114986022836116c3565b91507f4f6e6c79206f776e65722063616e20706572666f726d2074686973206163746960008301527f6f6e0000000000000000000000000000000000000000000000000000000000006020830152604082019050919050565b6114fa81611725565b82525050565b6115098161172f565b82525050565b600060208201905061152460008301846112ca565b92915050565b600060208201905061153f60008301846112d9565b92915050565b600060208201905061155a60008301846112e8565b92915050565b6000602082019050818103600083015261157a8184611306565b905092915050565b6000602082019050818103600083015261159b8161133f565b9050919050565b600060208201905081810360008301526115bb816113a5565b9050919050565b600060208201905081810360008301526115db816113e5565b9050919050565b600060208201905081810360008301526115fb81611425565b9050919050565b6000602082019050818103600083015261161b8161148b565b9050919050565b600060208201905061163760008301846114f1565b92915050565b600060408201905061165260008301856114f1565b61165f60208301846112f7565b9392505050565b600060608201905061167b60008301866114f1565b61168860208301856114f1565b61169560408301846112ca565b949350505050565b60006020820190506116b26000830184611500565b92915050565b600081519050919050565b600082825260208201905092915050565b60006116df82611705565b9050919050565b60008115159050919050565b6000819050611700826117b6565b919050565b600073ffffffffffffffffffffffffffffffffffffffff82169050919050565b6000819050919050565b600060ff82169050919050565b60006117478261174e565b9050919050565b600061175982611705565b9050919050565b600061176b826116f2565b9050919050565b60005b83811015611790578082015181840152602081019050611775565b8381111561179f576000848401525b50505050565b6000601f19601f8301169050919050565b600581106117c057fe5b50565b6117cc816116d4565b81146117d757600080fd5b50565b6117e381611725565b81146117ee57600080fd5b5056fea26469706673582212201f2ee634fe3d25eb5cb67186dd1474fe3d01a4007c4f97ee4a6d11126056bdf964736f6c63430007000033",
  "immutableReferences": {},
  "source": "// SPDX-License-Identifier: GPL-3.0\r\npragma solidity >=0.7.0 <0.9.0;\r\npragma experimental ABIEncoderV2;\r\n\r\nimport \"./IOrderProcess.sol\";\r\n\r\ncontract Payment {\r\n    address public owner;\r\n    address public orderAddress;\r\n    IOrderProcess public orderProcessContract;\r\n\r\n    mapping(address => uint256) public balances;\r\n    mapping(address => mapping(address => uint256)) public allowed;\r\n    uint256 public totalSupply;\r\n    string public name = \"FastCoin\";\r\n    string public symbol = \"FC\";\r\n    uint8 public decimals = 18;\r\n\r\n    event PaymentProcessed(uint orderId, uint amount, address customer);\r\n    event RefundProcessed(uint orderId, uint amount, address customer);\r\n    event Transfer(address indexed from, address indexed to, uint256 value);\r\n    event Approval(address indexed owner, address indexed spender, uint256 value);\r\n\r\n    constructor(address _orderAddress) {\r\n        owner = msg.sender;\r\n        orderAddress = _orderAddress;\r\n        orderProcessContract = IOrderProcess(_orderAddress);\r\n    }\r\n\r\n    modifier onlyOwner() {\r\n        require(msg.sender == owner, \"Only owner can perform this action\");\r\n        _;\r\n    }\r\n\r\n    modifier onlyOrderProcess() {\r\n        require(msg.sender == address(orderProcessContract), \"Only OrderProcess contract can call this\");\r\n        _;\r\n    }\r\n\r\n    // In Payment.sol\r\n    function setOrderProcessAddress(address _orderProcessAddress) external onlyOwner {\r\n        orderProcessContract = IOrderProcess(_orderProcessAddress);\r\n    }\r\n\r\n\r\n    function transfer(address to, uint256 value) public returns (bool) {\r\n        require(balances[msg.sender] >= value, \"Insufficient balance\");\r\n        balances[msg.sender] -= value;\r\n        balances[to] += value;\r\n        emit Transfer(msg.sender, to, value);\r\n        return true;\r\n    }\r\n\r\n    function transferFrom(address from, address to, uint256 value) public returns (bool) {\r\n        uint256 allowance = allowed[from][msg.sender];\r\n        require(balances[from] >= value && allowance >= value, \"Insufficient balance or allowance\");\r\n        balances[to] += value;\r\n        balances[from] -= value;\r\n        allowed[from][msg.sender] -= value;\r\n        emit Transfer(from, to, value);\r\n        return true;\r\n    }\r\n\r\n    function approve(address spender, uint256 value) public returns (bool) {\r\n        allowed[msg.sender][spender] = value;\r\n        emit Approval(msg.sender, spender, value);\r\n        return true;\r\n    }\r\n\r\n    function balanceOf(address owner) public view returns (uint256 balance) {\r\n        return balances[owner];\r\n    }\r\n\r\n    function allowance(address owner, address spender) public view returns (uint256) {\r\n        return allowed[owner][spender];\r\n    }\r\n\r\n    // payment for an order\r\n    function processPayment(uint orderId, uint amount, address customer) external onlyOrderProcess {\r\n        require(balances[customer] >= amount, \"Insufficient balance\");\r\n        transferFrom(customer, address(this), amount);\r\n        orderProcessContract.updateOrderStatus(orderId, OrderStatus.Completed);\r\n        emit PaymentProcessed(orderId, amount, customer);\r\n    }\r\n\r\n    // Refund payment for an order\r\n    function refundPayment(uint orderId, uint amount, address customer) external onlyOwner {\r\n        require(balances[address(this)] >= amount, \"Insufficient balance in contract\");\r\n        transfer(customer, amount);\r\n        orderProcessContract.updateOrderStatus(orderId, OrderStatus.Refunded);\r\n        emit RefundProcessed(orderId, amount, customer);\r\n    }\r\n\r\n    // Update OrderProcess contract address in case of changes\r\n    function updateOrderProcessAddress(address newAddress) external onlyOwner {\r\n        orderAddress = newAddress;\r\n        orderProcessContract = IOrderProcess(newAddress);\r\n    }\r\n}\r\n",
  "sourcePath": "C:\\Users\\mibra\\PROJ2\\contracts\\Payment.sol",
  "compiler": {
    "name": "solc",
    "version": "0.7.0+commit.9e61f92b.Emscripten.clang"
  },
  "schemaVersion": "3.4.16",
  "updatedAt": "2024-01-06T18:54:50.814Z",
  "devdoc": {
    "kind": "dev",
    "methods": {},
    "version": 1
  },
  "userdoc": {
    "kind": "user",
    "methods": {},
    "version": 1
  }
}